:400000000080002011000000750500007505000008B5044B1A6803F53F5302331A6000F0C9FA00BFFA46004010B5054C237833B9044B13B10448AFF300800123237010BDC0
:400040004881FF1F00000000E81C0000084B10B51BB108490848AFF300800848036803B910BD074B002BFBD0BDE81040184700BF000000004C81FF1FE81C0000C880FF1FFA
:400080000000000008B562B600F03EFF00F062FB01F07EF801F08AF800F024FC00F0BCFB00F08AFC00F0EEFC00F0FAFC00F084FD00F074FD00F0FEFE00F0ACFD00F00CFED9
:4000C00000F092FE01F050F901F05CF9002001F075F888B101F084F880B22E4B188000F5805292B22C4B1A802C4C2D49204601F0D7F9204600F022FF642000F041FF294BC9
:400100001B68002BFBD00020264B186000F088FE00F0FAFC234B1B68002BFBD0214B1B68012B1AD100F082FE1F4C208000F0ECFC00F068FE00F0A0FE00221A4B1A60228812
:4001400002F5005292B2194B1A80144C1449204601F0A6F9204600F0F1FE642000F010FF002001F017F988B101F026F980B2104B188000F5405292B20E4B1A80074C084988
:40018000204601F08DF9204600F0D8FE642000F0F7FE9BE7AA81FF1F8481FF1F8881FF1FEC1C0000AC81FF1FA681FF1FA881FF1F7C81FF1F7E81FF1FFEE700BFF0B4002237
:4001C000174611E050F82760F3B226F0FF0608E001EB420511F812406D78A5550132013BDBB2002BF4D101371C2FEBD9F0BC704708B50A46002101F04AF908BD2DE9F041C9
:40020000404B1B78DBB2404E3478E4B23F4F3D78EDB203F007013E4A11701B090132137044F00303337045F003033B7042F20102384B1A804FF0020C113383F800C00C2272
:4002400003F21F731A704023334A1370023213700632137002321370012230490A704FF0100E013181F800E08020043108702021DFF8B48088F8001008F1040888F8000035
:4002800008F1040888F8003008F1580888F8002008F1080888F800C008F1100888F800E008F1300888F8001008F1040888F8002008F10C0888F800C0DFF870C08CF8001088
:4002C0004FF090080CF1240C8CF800800CF1020C8CF800200CF11E0C8CF80030104B83F800E004331870033319702D331A700A2000F05CFE3D70347044220A4B1A70BDE89F
:40030000F08100BFCF010049F8460040F94600406E5800403C51004001590040135A0040245B004076580040205A0040DC5A004008B501F0A1F808BD38B50222414B1A801D
:400340001823414A1370FF210232118019210232117040F2AD11023211800232137008223A493B48FFF7E4FF06223A4B1A7008224FF040231A7043F2133203F212231A8020
:40038000023B05221A701B7843F2C82404E04FF4F07001F035F8013C24B12F4B1B7813F0800FF4D114B90120FFF706FF48224FF040231A70702203F500731A7040F20B72CB
:4003C00022331A8041F25122023B1A80002419250CE0224B1B7803F0010343EA440404F003044FF4F07001F00BF8013D0DB1032CEFD115B90320FFF7DFFE194A4FF48073FD
:40040000138007231370002316490B704820023108701370053213700222134B1A7004220A331A70114A137843F007031370013A137843F003031370013A137843F0800392
:40044000137038BD80400040824000401C04004800410040004300401042004025420040044000400640004001400040A243004038B572B62F4A137843F0040313700024B3
:400480000CE02D4D630019194A0011462A44084691882858FFF7ACFE0134E4B2092CF0D926494FF09040FFF789FE40F20312244B1A8040F2033204331A80224A137843F035
:4004C000020313701032137843F0020313701E4C237843F040032370A2F58632513A137843F0100313700A2218491948FFF720FF082218491848FFF71BFF082217491848C8
:40050000FFF716FF174A137843F008031370164D61232B70FFF710FF81232B700122134B1A70FFF76BFE0E2221461148FFF700FF38BD00BFE8460040F01C00007400004804
:400540004A58004003500140A043004000040048105100400C040048325100401404004842510040224300400048004004000840B043004008B500F053FF03680C2B00D189
:40058000FEE7FEE708B5094B1A681044084BC31A802B02DC054B186005E000F041FF0C2303604FF0FF32104608BD00BFCC80FF1FD081FF1F08B5104E104D16E029686B686D
:4005C000AC68002204E051F8040B43F8040B0432A242F8D1E868002203E0002143F8041B04328242F9D11035013E002EE6D100F01DFFFFF747FDFEE701000000B41D000062
:4006000008B5104A104B1A60104A136843F40073136000230AE0032B03D80D4A52F8231000E00C490C4A42F8231001332F2BF2D90A4B1A780A4B1A70074A0A4B1A60FFF7C5
:4006400017FF08BD0004FA050CED00E014ED00E000000000750500000080FF1FBC760040C080FF1F08ED00E0084A137843F0040313701032137843F00403137002F5A55213
:400680001E32137843F0800313707047A9430040044A137803F0FC0300F0030018431070704700BF0958004010B487B00446194B03AA1868596803C2197A11706A4653F828
:4006C0000C0F596803C21B7A1370082C1ED812490B7803F08003DBB20B70087806AB1C4414F80C3C14F8182C920002F00C02134303430B70094A137803F0F303137011780A
:4007000014F8183C0B4343F00C03137007B010BC704700BF2C1D00000A5800400958004008B50C22084B1A70084A137843F0200313700022064B1A700320FFF7B5FF012058
:40074000FFF7A6FF08BD00BF08580040095800400A58004008B5054B1B7823B9FFF7E0FF0122024B1A70FFF77FFF08BD6481FF1F054A137843F0010313701032137843F05C
:4007800001031370704700BFA8430040054B1A7802F0FD021A701A7800F0020010431870704700BF20580040014B1870704700BF805B0040064B1B78C3F3810303F19243DB
:4007C000063393F82031DBB2024A1370704700BF205800400846004008B5064B1A7802F0F3021A701A7800F00C0010431870FFF7E1FF08BD2058004010B50024054B1C703A
:4008000001331C700420FFF7E7FF2046FFF7BEFF10BD00BF2058004008B5074B1B7823B9FFF7EAFF0122044B1A70FFF7A1FFD120FFF7BAFF08BD00BF6581FF1F054A1378AA
:4008400043F0020313701032137843F002031370704700BFA8430040054B1A7802F0FD021A701A7800F0020010431870704700BF24580040014B1870704700BF815B004040
:40088000064B1B78C3F3810303F19243063393F83031DBB2024A1370704700BF245800400946004008B5064B1A7802F0F3021A701A7800F00C0010431870FFF7E1FF08BDFA
:4008C0002458004010B50024054B1C7001331C700420FFF7E7FF2046FFF7BEFF10BD00BF2458004008B5074B1B7823B9FFF7EAFF0122044B1A70FFF7A1FF6720FFF7BAFF31
:4009000008BD00BF6681FF1F054A137843F0080313701032137843F008031370704700BFA74300400F490B7803F0FC0200F0030313430B7001280AD10B4B1B78DBB20B4A03
:4009400013700B4B1B78DBB2013213707047094B1B78DBB2054A1370074B1B78DBB201321370704743580040130100493646004017010049B3010049BB01004908B50020B8
:40098000FFF7D0FF0B4B1A7842F020021A701A7802F0FB021A701A7842F008021A7003F527731A7802F0E7021A701A7842F010021A7008BD4358004008B5054B1B7823B944
:4009C000FFF7DCFF0122024B1A70FFF79DFF08BD6781FF1F054A137843F0020313701032137843F002031370704700BFA74300400F490B7803F0FC0200F0030313430B707F
:400A000001280AD10B4B1B78DBB20B4A13700B4B1B78DBB2013213707047094B1B78DBB2054A1370074B1B78DBB20132137070474158004011010049324600401501004911
:400A4000AF010049B701004908B50020FFF7D0FF0B4B1A7842F020021A701A7802F0FB021A701A7842F008021A7003F28E231A7802F0E7021A701A7842F010021A7008BDEF
:400A80004158004008B5054B1B7823B9FFF7DCFF0122024B1A70FFF79DFF08BD6881FF1F054A137843F0010313701032137843F001031370704700BFA2430040024A13782B
:400AC00043F080031370704774650040014B1880704700BF086A0040014B1880704700BF886A0040014B1880704700BF486A0040014B1880704700BF686A0040014B1870C9
:400B0000704700BF85650040014B1878704700BF65650040014B188880B27047A86A004008B501E0FFF7F6FFFFF7EEFF10F0100FF8D108BD10B5174A137803F0C00343F0DF
:400B4000220313702032137843F001031370124C237843F00103237049F2EA50FFF7B6FF49F2EA50FFF7B8FF40F6FE60FFF7BAFF40F6FE60FFF7BCFF0120FFF7BFFF00F0E4
:400B800047FC237843F01003237000F045FCFFF7C7FF10BD746500409565004008B5054B1B7823B9FFF7C6FF0122024B1A70FFF785FF08BD6981FF1F054A137843F00203E7
:400BC00013701032137843F002031370704700BFA24300400122014B1A607047AC81FF1F014B1B689864704708ED00E04001C0B2014B1870704700BF02E400E00422014BD8
:400C00001A60704700E100E00422014B1A60704780E100E008B5FFF7F7FF0448FFF7E0FF0720FFF7E3FFFFF7E9FF08BDD50B0000054A137843F0080313701032137843F0F7
:400C400008031370704700BFA8430040054B1A7802F0FD021A701A7800F0020010431870704700BF2C580040014B1870704700BF835B0040064B1B78C3F3810303F1924300
:400C8000063393F83831DBB2024A1370704700BF2C5800400B46004008B5064B1A7802F0F3021A701A7800F00C0010431870FFF7E1FF08BD2C58004010B50024054B1C7042
:400CC00001331C700420FFF7E7FF2046FFF7BEFF10BD00BF2C58004008B5074B1B7823B9FFF7EAFF0122044B1A70FFF7A1FFFF20FFF7BAFF08BD00BF6A81FF1F084A1378A4
:400D000043F0020313701032137843F00203137002F5A5521E32137843F0800313707047A9430040044A137803F0FC0300F0030018431070704700BF0558004010B487B0E4
:400D40000446194B03AA1868596803C2197A11706A4653F80C0F596803C21B7A1370082C1ED812490B7803F08003DBB20B70087806AB1C4414F80C3C14F8182C920002F00B
:400D80000C02134303430B70094A137803F0F3031370117814F8183C0B4343F00C03137007B010BC704700BF441D0000065800400558004008B50C22084B1A70084A13788E
:400DC00043F0200313700022064B1A700120FFF7B5FF0120FFF7A6FF08BD00BF04580040055800400658004008B5054B1B7823B9FFF7E0FF0122024B1A70FFF77FFF08BDB7
:400E00006B81FF1F704700BF014B1870704700BF87650040014B1878704700BF67650040014B1880704700BF0C6A0040024B1B78024B188880B27047066500408C6A0040B7
:400E4000014B188880B270478C6A0040014B1880704700BF4C6A0040014B1880704700BF6C6A004008B501E0FFF7EAFFFFF7D2FF10F0400FF8D108BD08B5FFF7F3FF40F6AB
:400E8000FF70FFF7E3FF0020FFF7CAFF0020FFF7BBFFFFF7BFFF0020FFF7DEFF00F0B8FA034A137843F01003137000F0B5FA08BD9765004008B5044B1B7823B9FFF7DCFF66
:400EC0000122014B1A7008BD6C81FF1F0622044B1A70472210331A7000224F331A7070472965004010B500F093FA0446054A137843F01003137000F033F8204600F08CFA19
:400F000010BD00BF9865004008B5054B1B7823B9FFF7DCFF0122024B1A70FFF7E3FF08BD6D81FF1F034B1B7813F0040FFAD1024B18707047686500404865004038B5074B71
:400F40001B782BB938BDFFF7EDFF0134A4B201E005460024285D0028F5D138BD6D81FF1F054A137843F0040313701032137843F004031370704700BFA243004001BE7047A2
:400F800010B5044605E0084B186800F039FAA4F50044B4F5004FF6D8034B586800FB04F000F02EFA10BD00BFD080FF1F08B5034B1B7A00FB03F000F023FA08BDD080FF1FC7
:400FC00070B504460E46074B1D681F2802D90020FFF7D4FF04F01F04103455F8240045F8246070BD08ED00E038B504460D46072902D90020FFF7C2FF1F2C02D90020FFF715
:40100000BDFF04F01F0000F1604000F564406D01EDB2057038BD00BF08B50A2813D00C2802D0082809D104E04FF400624FF480510DE080224FF4807109E00020FFF79EFFA3
:401040000022114603E04FF400724FF480610020094B188042F2107303FB01F303F6C413064981FB0301DB17C3EBE12304490B6012B2044B1A8008BDB481FF1FAD8BDB684B
:40108000B881FF1FB281FF1F10B500F0C1F904461E4A137843F0010313701032137843F0010313701A3A137843F0020313701032137843F00203137002F5AA5212321378B7
:4010C00043F0030313701822114B1A70013B1A7842F040021A701A7802F0FC021A70C822053B1A700222A3F597530C3B1A70094A137843F0080313700A20FFF757FF0122D9
:40110000054B1A60204600F087F910BDAB43004006590040275B004080E200E010B504460A280DD00C2802D0082804D101E0C22207E0422205E00020FFF720FFC22200E05A
:401140008222034B1A702046FFF766FF10BD00BF0259004008B5102000F03CF907210020FFF742FF07490020FFF72AFF064A137843F0060313700C20FFF7D0FF0022034BF0
:401180001A8008BDF911000001590040B081FF1F08B5054B1B7823B9FFF7DCFF0122024B1A70FFF771FF08BD6F81FF1F024A137843F00103137070470059004010B5074B65
:4011C0001B7813F0010401D10028F8D024B10120FFF7ECFE014B1B78204610BD01590040034B188880B2034B1B88C01A00B27047A05B0040B281FF1F704700BF08B50A28CB
:401200000FD00C2802D0082806D102E04FF4805209E04FF4807206E00020FFF7AFFE002201E04FF480620021094B198042F2107303FB02F303F6C413064A82FB0302DB1790
:40124000C3EBE223044A1360044B198008BD00BFBE81FF1FAD8BDB68C081FF1FBC81FF1F38B500F0D5F804461E4A137843F0020313701032137843F0020313701A3A1378F3
:4012800043F0010313701032137843F00103137002F5AA521A32137843F0030313701822114B1A70013B1A7842F040021A701A7802F0FC021A70C822053B1A700225A3F5FC
:4012C0009753123B1D70094A137843F0080313700A20FFF76BFE064B1D60204600F09CF838BD00BFAB4300400E5900402F5B004080E200E010B504460A280DD00C2802D091
:40130000082804D101E0C22207E0422205E00020FFF734FEC22200E08222034B1A702046FFF76CFF10BD00BF0A59004008B5102000F05AF807210120FFF756FE0749012002
:40134000FFF73EFE064A137843F0060313700C20FFF7D0FF0022034B1A8008BDD113000009590040C481FF1F08B5054B1B7823B9FFF7DCFF0122024B1A70FFF771FF08BD86
:401380007081FF1F024A137843F00103137070470859004010B5074B1B7813F0010401D10028F8D024B10120FFF700FE014B1B78204610BD09590040034B188880B2034BB5
:4013C0001B88C01A00B27047A25B0040BC81FF1F704700BF034B1A7800F0F80010431870704700BF06410040034B1A7800F0F80010431870704700BF0241004000000000BD
:401400000230800803D000BF01380046FCD17047EFF3108072B6704780F31088704700BF014B1868704700BF4081FF1F0E4B70B51E460E4C0025E41AA410A54204D056F84E
:40144000253098470135F8E700F0A2FC084B094C1E46E41AA4100025A54204D056F8253098470135F8E770BD9C1D00009C1D00009C1D0000A41D000010B5431E0A44914200
:4014800004D011F8014B03F8014FF8E710BD03460244934202D003F8011BFAE7704700000EB400B54FF402719CB0ADF814106FF00041049107914FF6FF711DAB0290069073
:4014C000084853F8042BADF81610006802A9019300F064F8029B00221A701CB05DF804EB03B070474081FF1F2DE9F0478E6882469E420C46914698463ED88A8912F4906FA2
:401500003AD02568096902236F1A656905EB450595FBF3F57B1C43449D4238BF1D4653050FD5294600F040FB064698B13A462169FFF7A2FFA38923F4906343F08003A38101
:4015400013E02A4600F08EFB064670B92169504600F0DEFA0C23CAF80030A3894FF0FF3043F04003A381BDE8F08726613E44266046466561ED1BA560464528BF4646494646
:401580003246206800F0A8FAA36800209B1BA36023681E442660BDE8F08700002DE9F04F9DB003938B8980461C060D4616460DD50B695BB9402100F0F7FA2860286118B9B5
:4015C0000C23C8F80030CDE040236B610023099320238DF82930DFF89CB130238DF82A3037463C4614F8013B1BB9B7EB060910D003E0252BF9D02746F3E74B463246294653
:401600004046FFF771FF013000F0A780099B4B4409933B78002B00F0A08000234FF0FF3204930793059206938DF853301A930126052221784E4800F041FA671C049B38B15D
:401640004B4A3C46801A06FA00F018430490EFE7D90644BF20228DF853201A0744BF2B228DF8532022782A2A03D0079A00210A200BE0039A111D12680391002A10DA524266
:4016800043F00200079204900BE027463B780134303B092B03D800FB02320121F5E701B107923B782E2B1ED17B782A2B0AD1039B02371A1D1B680392002BB8BF4FF0FF333F
:4016C000059310E0002319460593781C0A2407463A780130303A092A03D804FB01210123F5E703B1059103223978224800F0E6F940B14023CBEB000003FA00F0049B013796
:4017000018430490397806221B487E1C8DF8281000F0D4F988B1194B33B9039B073323F007030833039314E003AB00932A46144B04A94046AFF3008007E003AB00932A462A
:401740000F4B04A9404600F093F8B0F1FF3F824603D0099B5344099342E7AB895B0601D4099801E04FF0FF301DB0BDE8F08F00BF5B1D0000611D0000651D00000000000065
:40178000E91400002DE9F04791461F460A698B6806469342B8BF1346C9F8003091F843200C46DDF8208012B10133C9F800302368990642BFD9F800300233C9F800302568E1
:4017C00015F0060510D104F1190A07E00123524639463046C04701301AD00135E368D9F800209B1A9D42F1DB94F843302268003318BF012392060FD5E118302081F843001C
:401800005A1C94F845102244023382F8431003E04FF0FF30BDE8F08704F1430239463046C0470130F4D02268D9F80050E36802F00602042A08BF5D1B2269A3680CBF25EA84
:40184000E57500259342C4BF9B1AED184FF000091A344D4509D00123224639463046C0470130D5D009F10109F3E70020BDE8F0872DE9F04317460A7E85B06E2A9846064639
:401880000C460C9B01F1430E00F0AE8011D8632A22D009D8002A00F0BB80582A40F0CA8081F84520834955E0642A1ED0692A1CD0C0E0732A00F0B08009D86F2A2ED0702AEB
:4018C00040F0B8800A6842F020020A603EE0752A24D0782A3AD0ADE01A6801F14205111D1960136884F84230A8E021681A6811F0800F02D0111D196008E011F0400F02F1D4
:401900000401196002D0B2F9003000E01368002B3CDA2D225B4284F8432037E021681A6811F0800F02D0111D196007E011F0400F02F10401196001D0138800E01368227EDB
:401940005C496F2A14BF0A2208221BE078225A4984F845202268186812F0800F00F104051D6003D1550601D5038800E00368D00744BF42F0200222601BB9226822F02002B8
:4019800022601022002084F8430001E049490A226568002DA56008DB206820F0040020602BB9002D7DD175460CE0002B79D07546B3FBF2F002FB1033CB5C05F8013D034647
:4019C0000028F5D1082A0BD12368DA0708D5236962689A42DEBF302305F8013C05F1FF35C5EB0E0323612EE008681A6810F0800F496903D0101D1860136808E010F0400F6C
:401A000002F104001860136801D0198000E0196000232361754616E01A68111D1960156800216268284600F049F808B1401B6060636804E004F1420584F84220012323612C
:401A4000002384F84330CDF800803B4603AA21463046FFF797FE013002D14FF0FF3026E023692A4639463046C0470130F5D023689B0710D5002504F1190907E001234A462A
:401A800039463046C0470130E7D00135E368039A9B1A9D42F2DBE068039B9842B8BF184605E00B7804F1420584F842308AE705B0BDE8F0836C1D00007D1D000010B5C9B2FB
:401AC00002449042034605D01C7801308C42F8D1184610BD002010BD884210B501EB020301D8421E0BE09842FBD28118D21AD34204D013F8014D01F8014DF8E710BD99425C
:401B000004D011F8014B02F8014FF8E710BD000038B50546002944D051F8043C0C1F002BB8BFE41800F0D4F81E4A1368114613B96360146030E0A3420DD92268A0188342E4
:401B400001BF18685B681218226063600C6023E0A24203D813465A68002AF9D118681918A1420BD12168014458188242196013D110685268014419605A600DE002D90C2346
:401B80002B6009E021686018824201BF106852680918216062605C602846BDE8384000F098B838BD7881FF1F70B5CD1C25F0030508350C2D38BF0C25002D064601DBA942FA
:401BC00002D90C23336046E000F082F8234B1C681A462146A1B10B685B1B0ED40B2B03D90B60CC18CD501EE08C420BBF63684B681360636018BF0C4615E00C464968E9E729
:401C0000174C23681BB9304600F052F820602946304600F04DF8431C18D0C41C24F00304A0420DD12560304600F053F804F10B00231D20F00700C31A0ED05A42E25070BD53
:401C4000211A304600F034F80130EBD10C233360304600F03EF8002070BD00BF7881FF1F7481FF1FF8B5074615460E4621B91146BDE8F840FFF798BF1AB9FFF749FF284693
:401C8000F8BD00F027F885420ED929463846FFF78BFF044650B131462A46FFF7EDFB31463846FFF735FF01E03046F8BD2046F8BD38B5064C0023054608462360FEF762FC1E
:401CC000431C02D1236803B12B6038BDC881FF1F7047704751F8040C0028BEBF091851F8043CC01804387047000000002578000000510040100020510040100050510040CB
:401D00002000C05100401000F0510040100000000140001000140140000800400140000A004C014000020050014020000111213141615363730000000809010105070704BF
:401D4000040000000111213141615363730000000809010105070704044300232D302B2000686C4C006566674546470030313233343536373839414243444546003031329B
:401D800033343536373839616263646566000000F8B500BFF8BC08BC9E4670474D00000001060000F8B500BFF8BC08BC9E46704729000000C81D0000C880FF1F800000000E
:401DC000880000000000000000000000D081FF1F00007440E880000021000000408AF7010000000000000000000000000000000000000000000000000000000000000000ED
:401E0000591D00000000000000000000000000000000000000000000000000000000000000000000000000000000000000000000000000000000000000000000000000002C
:401E4000E080FF1F000000000000000000000000000000000000000000000000000000000000000000000000000000000000000000000000000000000000000000000000E4
:401E80000000000000000000000000000000000000000000000000000000000000000000000000000000000000000000000000000000000000000000000000000000000022
:401EC00000000000000000000000000000000000000000000000000000000000000000000000000000000000000000000000000000000000000000000000000000000000E2
:401F000000000000000000000000000000000000000000000000000000000000000000000000000000000000000000000000000000000000000000000000000000000000A1
:401F40000000000000000000000000000000000000000000000000000000000000000000000000000000000000000000000000000000000000000000000000000000000061
:020000040003F7
:0200000480007A
:4000000002520040015B004003650040020501400407014002090140020B0140040C0140010D01404A140140281501404F1601402E1701406018014032190140031B01402D
:4000400003400140024101400242014004430140024501400446014003470140024801400A490140084C0140014D01400350014001510140080418102721850F8767880FCE
:400080009A08B60898049A08B004EE04B340EE849380EA1038803E4058045F011F402E0136014010410249FF4AFF4BFF4DA04F045018528058045A045B045C015D115F01A7
:4000C000604062C06440654066C068C06AC06CC06EC080018202830184068B019C08A102A801AA04AD02B006B201B302B501B608B808BF10C050C102C5D0C620C751C83EAA
:40010000C9FFCAFFCBFFCDAFCE0FCF04D018D407D604D804D904DA04DB04DC11DD11DF01E040E2C0E440E540E6C0E8C0EAC0ECC0EEC0050406400F021002160818011980CB
:400140001C401D041F8027282F823C013E204001412045204D804F015520566857035C405F296780700287409D80A701AB20C030C280C441CA90CEA0D02CD210D6F0D88048
:40018000EE08030405060E0212011B031C0224012A0130023306350136013E404014410249FF4AFF4BFF4DA04F015018580459045A045C015F016040628064406540668096
:4001C00068406A506BA86C406D206E506FA8820284028C018F01A605B004B402B501B601BE50C015C102C525C6C0C70EC81FC9FFCAFFCBFFCDAFCE07CF01D018D407D804E6
:40020000D904DA04DB04DF01E040E280E440E540E680E840EA50EBA8EC40ED20EE50EFA80044024005800E800F0210201728184019401A041D801E802004272837203B8068
:400240003E0A40084180440C4580464048204A804B8051085250534059505A04610862108110828098049A0AB202C08DC290C464CC20CEC8D0BCD208D60ED8060013020414
:4002800006150C130E0C0F01100A1101121415021D011E08240326142820301031033420360F39023A803E114046410146C047BE483849FF4AFF4BFF4EF04F44500C540183
:4002C000580459045A045B045C225D225F0166C06A406B02801082AC87138C0C8D2C8E718F0390DC92229A039B089C099ED09F0CA014A131A30EA410A640A940AA20AD3134
:40030000AF06B0E0B10FB330B41FB540B908BA02BB02BF14C003C640C9FFCA07CBFFCC40CD20CEF0CF05D008D804D904DA04DC22DD02DF01E040E1A8E240E3200241040800
:40034000054108400A040B400C400F401020110212081420162819211A041D401E48204021242340274029612A41306033403541360838483C40410446414C045024520810
:40038000550156285C205E485F028920C0B9C29BC46ECA0DCCDCCE1AD092D220D6F0EA80B208B302EE0833223680CC70A680A722A680A722A680A702AB20EE201102C40839
:4003C0001B04B501C608EA080002AB04C008A680A7025C0187029001A702A801AE80D680E210EA80EE101F8056208A20B001C601D402E401EA01AF8010071A031C04003FDA
:400400000400000F0F0004000000000000001000100021000000000000000200200018012000180100000000000000000000000000000000000000000000000000000000E1
:40044000000000000000000000000000000000000000000000000000000000000000000000000000000000000000000000000000000000000000000000000000000000007C
:40048000000000000000000000000000000000000000000000000000000000000000000000000000000000000000000000000000000000000000000000000000000000003C
:4004C00000000000000000000000000000000000000000000000000000000000000000000000000000000000000000000000000000000000000000000000000000000000FC
:4005000000000000000000000000000000000000000000000000000000000000000000000000000000000000000000000000000000000000000000000000000000000000BB
:0200000490006A
:0400000000004005B7
:0200000490105A
:04000000BC90ACAF55
:0200000490303A
:0200000021DEFF
:0200000490402A
:4000000000000000000000000000000000000000000000000000000000000000000000000000000000000000000000000000000000000000000000000000000000000000C0
:400040000000000000000000000000000000000000000000000000000000000000000000000000000000000000000000000000000000000000000000000000000000000080
:400080000000000000000000000000000000000000000000000000000000000000000000000000000000000000000000000000000000000000000000000000000000000040
:4000C0000000000000000000000000000000000000000000000000000000000000000000000000000000000000000000000000000000000000000000000000000000000000
:0200000490501A
:0C00000000012E12306900012E1E524734
:00000001FF